:1000000034C04CC04BC04AC049C048C047C046C0BD
:1000100045C044C05D0049003D002E00270020007F
:1000200073746F70310A0073746172740A00415402
:100030002B43495053454E443D302C360041542B00
:1000400043495053544F3D300041542B4349505382
:1000500045525645523D312C383838390041542BE1
:100060004349504D55583D31000011241FBECFE982
:10007000CDBF10E0A0E6B0E0EEE7F3E002C00590EF
:100080000D92A436B107D9F720E0A4E6B0E001C094
:100090001D92A038B207E1F72AD16FC1B1CF2FB7B7
:1000A000F8949AE0E8B3EE7FE8BB0000000000009F
:1000B00000000000E7EFF0E03197F1F7E8B380FDD2
:1000C000E16080FFEE7FE8BB089487959A9591F7F1
:1000D0002FBF08950F931F93CF938C01C0E0F801B9
:1000E000EC0FF11D8081882319F0D9DFCF5FF7CFA6
:1000F0008DE0D5DF8AE0CF911F910F91D0CF1F9374
:10010000CF93DF938AE0C39A2FEF35EA9EE0215028
:1001100030409040E1F700C00000C398EFEFF5EAEF
:100120002EE0E150F0402040E1F700C00000815097
:1001300051F7C8E6D0E018E1FE01212F11922A956F
:10014000E9F7E4E1F0E065917491CE010FD1CE01C1
:10015000C1DF3FEF81EF9BE2315080409040E1F7FB
:1001600000C00000FE01212F11922A95E9F7E6E177
:10017000F0E065917491CE01F9D0CE01ABDF3FEF95
:100180008BE49DE1315080409040E1F700C00000D9
:10019000FE0111921A95E9F7E8E1F0E0659174919A
:1001A000CE01E4D0CE0196DFFFEF2BE43DE1F1502C
:1001B00020403040E1F700C00000C39ADF91CF91AA
:1001C0001F9108950F931F93CF93DF93C82F08E6D5
:1001D00010E0D8E1F8012D2F11922A95E9F7EAE114
:1001E000F0E065917491C801C1D0C80173DF8FEF51
:1001F0009BEDE5E081509040E040E1F700C0000059
:10020000F8011192DA95E9F7EC2FF0E0EE0FFF1FFD
:10021000E45EFF4F65917491C801A8D0C801DF91D9
:10022000CF911F910F9156CF389A3D9A86B183682E
:1002300086B90895369A3699FECF85B190E0089533
:10024000F9DF20916600309167002817390720F404
:100250009093670080936600209161003091620066
:100260008217930720F4909362008093610020919D
:100270006600309167008091610090916200281BB8
:10028000390B80916000263031052CF08F5F85316D
:100290004CF084E107C02230310534F481508C3EAB
:1002A0000CF48CEE80936000809165008F5F8A3142
:1002B00018F4809365000CC01092650080E094E013
:1002C0009093620080936100109267001092660024
:1002D000809160008B3024F081E08093640004C042
:1002E000863F14F4109264008091640008952FEF0B
:1002F0008DEE92E0215080409040E1F700C0000078
:1003000088E187BB91DFC09AB89AF9DEC0E098DF38
:1003100090E08130910579F4C1111EC080E052DF78
:10032000C49A2FEF85EA9EE0215080409040E1F78B
:1003300000C0000011C0892B91F4C13079F481E034
:1003400041DFC4982FEF85EA9EE021508040904025
:10035000E1F700C0000002C0C1E001C0C0E08FEDC5
:100360009EE20197F1F700C00000D1CFFB01DC0154
:0E03700005900D920020E1F70895F894FFCF5C
:04037E00FB0004007C
:00000001FF
